{
  "contractName": "BetHiLoMinter",
  "abi": [
    {
      "inputs": [
        {
          "internalType": "address",
          "name": "_betHiLoTokenAddress",
          "type": "address"
        }
      ],
      "stateMutability": "nonpayable",
      "type": "constructor"
    },
    {
      "inputs": [],
      "name": "betHiLoToken",
      "outputs": [
        {
          "internalType": "contract IBetHiLo",
          "name": "",
          "type": "address"
        }
      ],
      "stateMutability": "view",
      "type": "function",
      "constant": true
    },
    {
      "inputs": [
        {
          "internalType": "address",
          "name": "to",
          "type": "address"
        },
        {
          "internalType": "uint256",
          "name": "amount",
          "type": "uint256"
        }
      ],
      "name": "mintTokens",
      "outputs": [],
      "stateMutability": "nonpayable",
      "type": "function"
    }
  ],
  "bytecode": "0x608060405234801561000f575f80fd5b506040516103ea3803806103ea833981810160405281019061003191906100d4565b805f806101000a81548173ffffffffffffffffffffffffffffffffffffffff021916908373ffffffffffffffffffffffffffffffffffffffff160217905550506100ff565b5f80fd5b5f73ffffffffffffffffffffffffffffffffffffffff82169050919050565b5f6100a38261007a565b9050919050565b6100b381610099565b81146100bd575f80fd5b50565b5f815190506100ce816100aa565b92915050565b5f602082840312156100e9576100e8610076565b5b5f6100f6848285016100c0565b91505092915050565b6102de8061010c5f395ff3fe608060405234801561000f575f80fd5b5060043610610034575f3560e01c80635a37762714610038578063f0dda65c14610056575b5f80fd5b610040610072565b60405161004d919061019a565b60405180910390f35b610070600480360381019061006b9190610225565b610095565b005b5f8054906101000a900473ffffffffffffffffffffffffffffffffffffffff1681565b5f8054906101000a900473ffffffffffffffffffffffffffffffffffffffff1673ffffffffffffffffffffffffffffffffffffffff166340c10f1983836040518363ffffffff1660e01b81526004016100ef929190610281565b5f604051808303815f87803b158015610106575f80fd5b505af1158015610118573d5f803e3d5ffd5b505050505050565b5f73ffffffffffffffffffffffffffffffffffffffff82169050919050565b5f819050919050565b5f61016261015d61015884610120565b61013f565b610120565b9050919050565b5f61017382610148565b9050919050565b5f61018482610169565b9050919050565b6101948161017a565b82525050565b5f6020820190506101ad5f83018461018b565b92915050565b5f80fd5b5f6101c182610120565b9050919050565b6101d1816101b7565b81146101db575f80fd5b50565b5f813590506101ec816101c8565b92915050565b5f819050919050565b610204816101f2565b811461020e575f80fd5b50565b5f8135905061021f816101fb565b92915050565b5f806040838503121561023b5761023a6101b3565b5b5f610248858286016101de565b925050602061025985828601610211565b9150509250929050565b61026c816101b7565b82525050565b61027b816101f2565b82525050565b5f6040820190506102945f830185610263565b6102a16020830184610272565b939250505056fea2646970667358221220c133b31cb1f33ed8f847f3313b41d8c95d0e3a756286f299d5a66d4ad972f27064736f6c63430008140033",
  "immutableReferences": {},
  "source": "// SPDX-License-Identifier: MIT\r\npragma solidity ^0.8.20;\r\n\r\ninterface IBetHiLo {\r\n    function mint(address to, uint256 amount) external;\r\n}\r\n\r\ncontract BetHiLoMinter {\r\n    IBetHiLo public betHiLoToken;\r\n\r\n    constructor(address _betHiLoTokenAddress) {\r\n        betHiLoToken = IBetHiLo(_betHiLoTokenAddress);\r\n    }\r\n\r\n    function mintTokens(address to, uint256 amount) external {\r\n        betHiLoToken.mint(to, amount);\r\n    }\r\n}",
  "sourcePath": "/media/usuario/7018ab88-9cc7-435a-89f8-b1035c79afb01/www/web3/hi-lo/hi-lo/contracts/BetHiLoMinter.sol",
  "compiler": {
    "name": "solc",
    "version": "0.8.20+commit.a1b79de6.Emscripten.clang"
  },
  "schemaVersion": "3.4.16",
  "updatedAt": "2023-10-30T08:50:17.054Z",
  "networkType": "ethereum",
  "devdoc": {
    "kind": "dev",
    "methods": {},
    "version": 1
  },
  "userdoc": {
    "kind": "user",
    "methods": {},
    "version": 1
  }
}